{
  "contractName": "RealCV",
  "abi": [
    {
      "constant": false,
      "inputs": [],
      "name": "kill",
      "outputs": [],
      "payable": false,
      "stateMutability": "nonpayable",
      "type": "function"
    },
    {
      "constant": false,
      "inputs": [],
      "name": "constructor",
      "outputs": [],
      "payable": false,
      "stateMutability": "nonpayable",
      "type": "function"
    },
    {
      "constant": false,
      "inputs": [],
      "name": "SayHello",
      "outputs": [
        {
          "name": "",
          "type": "string"
        }
      ],
      "payable": false,
      "stateMutability": "nonpayable",
      "type": "function"
    }
  ],
  "bytecode": "0x608060405234801561001057600080fd5b50610216806100206000396000f300608060405260043610610057576000357c0100000000000000000000000000000000000000000000000000000000900463ffffffff1680633acb31501461005c57806341c0e1b5146100ec57806390fa17bb14610103575b600080fd5b34801561006857600080fd5b5061007161011a565b6040518080602001828103825283818151815260200191508051906020019080838360005b838110156100b1578082015181840152602081019050610096565b50505050905090810190601f1680156100de5780820380516001836020036101000a031916815260200191505b509250505060405180910390f35b3480156100f857600080fd5b50610101610157565b005b34801561010f57600080fd5b506101186101e8565b005b60606040805190810160405280600b81526020017f48656c6c6f20776f726c64000000000000000000000000000000000000000000815250905090565b6000809054906101000a900473ffffffffffffffffffffffffffffffffffffffff1673ffffffffffffffffffffffffffffffffffffffff163373ffffffffffffffffffffffffffffffffffffffff1614156101e6576000809054906101000a900473ffffffffffffffffffffffffffffffffffffffff1673ffffffffffffffffffffffffffffffffffffffff16ff5b565b5600a165627a7a723058208983a632d2badccdcb13540cd6988d47f2e35ba9ff80d5a9f1c4adf88a5b78f00029",
  "source": "pragma solidity ^0.4.0;\n\nimport \"./mortal.sol\";\n\ncontract RealCV is mortal {\n\n  function constructor(){\n\n  }\n\n  function SayHello() public returns (string) {\n    return 'Hello world';\n  }\n}\n",
  "sourcePath": "/Users/bertrandlarsy/code/myrr/dapp/contracts/RealCV.sol",
  "compiler": {
    "name": "solc",
    "version": "0.4.23+commit.124ca40d.Emscripten.clang"
  },
  "schemaVersion": "2.0.0",
  "updatedAt": "2018-05-04T18:19:33.492Z"
}